:100000000C9461000C947E000C947E000C947E0095
:100010000C947E000C947E000C947E000C947E0068
:100020000C947E000C947E000C947E000C947E0058
:100030000C947E000C947E000C947E000C947E0048
:100040000C949D000C947E000C947E000C947E0019
:100050000C947E000C947E000C947E000C947E0028
:100060000C947E000C947E00000000002400270009
:100070002A0000000000250028002B0000000000DE
:1000800023002600290004040404040404040202DA
:100090000202020203030303030301020408102007
:1000A0004080010204081020010204081020000012
:1000B0000007000201000003040600000000000029
:1000C000000011241FBECFEFD8E0DEBFCDBF11E08E
:1000D000A0E0B1E0EEE7F3E002C005900D92A2309F
:1000E000B107D9F711E0A2E0B1E001C01D92AB3039
:1000F000B107E1F70E94B6010C94BD010C94000019
:100100008091000161E00E94690168EE73E080E087
:1001100090E00E94E5008091000160E00E9469018A
:1001200068EE73E080E090E00E94E5000895809121
:10013000000161E00E94490108951F920F920FB6DD
:100140000F9211242F933F938F939F93AF93BF935D
:100150008091060190910701A0910801B0910901D9
:1001600030910A010196A11DB11D232F2D5F2D375E
:1001700020F02D570196A11DB11D20930A018093F7
:10018000060190930701A0930801B09309018091A3
:10019000020190910301A0910401B0910501019623
:1001A000A11DB11D8093020190930301A09304014E
:1001B000B0930501BF91AF919F918F913F912F9186
:1001C0000F900FBE0F901F901895EF92FF920F9314
:1001D0001F937B018C018FB7F894409106015091D9
:1001E000070160910801709109018FBF2FB7F89442
:1001F0008091060190910701A0910801B091090139
:100200002FBF841B950BA60BB70BE816F9060A0740
:100210001B0760F71F910F91FF90EF90089578945E
:1002200084B5826084BD84B5816084BD85B58260FB
:1002300085BD85B5816085BDEEE6F0E08081816099
:100240008083E1E8F0E0808182608083808181604A
:100250008083E0E8F0E0808181608083E1EBF0E082
:10026000808184608083E0EBF0E080818160808326
:10027000EAE7F0E08081846080838081826080830F
:100280008081816080838081806880831092C1003A
:100290000895282F30E0C90186569F4FFC019491A4
:1002A0002A573F4FF9018491882391F0E82FF0E01D
:1002B000EE0FFF1FE859FF4FA591B491662329F473
:1002C0008C91909589238C9308958C91892B8C9394
:1002D0000895482F50E0CA0182559F4FFC01249198
:1002E000CA0186569F4FFC0194914A575F4FFA010D
:1002F00034913323D1F1222331F1233021F4809141
:1003000080008F7705C0243031F4809180008F7D8C
:100310008093800018C0213019F484B58F7704C011
:10032000223021F484B58F7D84BD0DC0263021F4A8
:100330008091B0008F7705C0273029F48091B000FC
:100340008F7D8093B000E32FF0E0EE0FFF1FEE589B
:10035000FF4FA591B491662329F48C919095892340
:100360008C9308958C91892B8C9308950E940F0192
:0E0370000E9497000E948000FDCFF894FFCFFE
:02037E000D0070
:00000001FF
