:100000000C9458020C9402100C942F100C94800243
:100010000C9480020C9480020C9480020C94800258
:100020000C9480020C9480020C9480020C94800248
:100030000C9480020C9480020C9480020C94800238
:100040000C945C100C9480020C941E120C9465129B
:100050000C9480020C9480020C9480020C94800218
:100060000C9480020C9480020A417661696C616292
:100070006C6520636F6D6D616E64733A0A20203C7D
:100080006E6E3E206920202020202D207365742074
:100090006E6F646520494420287374616E646172D8
:1000A00064206E6F6465206964732061726520311D
:1000B0002E2E3236290A2020202020202020202009
:1000C0002020202020286F7220656E7465722061C8
:1000D0006E20757070657263617365202741272EED
:1000E0002E275A2720746F20736574206964290AAB
:1000F00020203C6E3E20622020202020202D2073D6
:100100006574204D487A2062616E64202834203D59
:10011000203433332C2038203D203836382C2039F9
:10012000203D20393135290A20203C6E6E6E3E205C
:1001300067202020202D20736574206E6574776FF2
:10014000726B2067726F7570202852464D313220D5
:100150006F6E6C7920616C6C6F7773203231322C4A
:100160002030203D20616E79290A20203C6E3E20FF
:10017000632020202020202D2073657420636F6C65
:100180006C656374206D6F64652028616476616EB0
:100190006365642C206E6F726D616C6C7920302900
:1001A0000A202074202020202020202020202D2004
:1001B00062726F616463617374206D61782D73691D
:1001C0007A652074657374207061636B65742C208C
:1001D000776974682061636B0A20202E2E2E2C3CD8
:1001E0006E6E3E2061202D2073656E642064617404
:1001F00061207061636B657420746F206E6F64653D
:10020000203C6E6E3E2C20776974682061636B0A17
:1002100020202E2E2E2C3C6E6E3E2073202D20731F
:10022000656E642064617461207061636B65742025
:10023000746F206E6F6465203C6E6E3E2C206E6F76
:100240002061636B0A20203C6E3E206C2020202021
:1002500020202D207475726E206163746976697434
:1002600079204C4544206F6E20504231206F6E2023
:100270006F72206F66660A20203C6E3E207120203F
:10028000202020202D2073657420717569657420ED
:100290006D6F6465202831203D20646F6E277420C7
:1002A0007265706F727420626164207061636B6547
:1002B0007473290A52656D6F746520636F6E747272
:1002C0006F6C20636F6D6D616E64733A0A20203C21
:1002D000686368693E2C3C68636C6F3E2C3C6164CB
:1002E00064723E2C3C636D643E20662020202020FA
:1002F0002D204653323020636F6D6D616E6420286F
:10030000383638204D487A290A20203C61646472CE
:100310003E2C3C6465763E2C3C6F6E3E206B20206C
:100320002020202020202020202020202D204B4174
:100330004B5520636F6D6D616E642028343333201C
:100340004D487A290A00466C6173682073746F7295
:1003500061676520284A65654C696E6B206F6E6C1D
:1003600079293A0A202064202020202020202020E3
:10037000202020202020202020202020202020207D
:10038000202020202020202D2064756D7020616C9D
:100390006C206C6F67206D61726B6572730A202030
:1003A0003C73683E2C3C736C3E2C3C74333E2C3CBE
:1003B00074323E2C3C74313E2C3C74303E20722012
:1003C000202D207265706C61792066726F6D2073CC
:1003D0007065636966696564206D61726B65720A38
:1003E00020203132332C3C6268693E2C3C626C6FB9
:1003F0003E2065202020202020202020202020209A
:100400002020202D20657261736520344B20626CA2
:100410006F636B0A202031322C3334207720202068
:1004200020202020202020202020202020202020CC
:10043000202020202020202D207769706520656EE7
:100440007469726520666C617368206D656D6F728A
:10045000790A0000000000240027002A00000000A4
:1004600000250028002B00000000002300260029A2
:10047000000404040404040404020202020202034D
:100480000303030303010204081020408001020457
:1004900008102001020408102000000007000201DB
:1004A0000000030406000000000000000000DC1350
:1004B00011241FBECFEFD8E0DEBFCDBF11E0A0E01A
:1004C000B1E0E4EFFCE202C005900D92A63CB1075A
:1004D000D9F714E0A6ECB1E001C01D92AB37B1072B
:1004E000E1F714E0C0EBD4E004C02297FE010E94C3
:1004F0007416CE3AD107C9F70E942C140C947816C2
:100500000C940000FB01DC0102C001900D924150EF
:100510005040D8F70895FB01DC010D900020E9F769
:10052000119701900D920020E1F70895FB01DC0185
:1005300001900D920020E1F7089525E0F8942898A5
:100540002EBD0DB407FEFDCF9EB51EBC0DB407FE3B
:10055000FDCF9EB5289A78949F3F11F090FDEECF85
:10056000F89428988EBD0DB407FEFDCF8EB5089582
:100570001F93182F86E00E949D02289A7894812F5D
:100580000E949D021F910895DF92EF92FF920F93B8
:100590001F93CF93DF938C01D62E7A01E90183E07C
:1005A0000E949D021EBD0DB407FEFDCF8EB50EBD8F
:1005B0000DB407FEFDCF8EB5DEBC0DB407FEFDCF3A
:1005C0008EB520E030E00BC01EBC0DB407FEFDCFA1
:1005D0008EB5F701E20FF11D80832F5F3F4F2C177F
:1005E0003D0790F3289A7894DF91CF911F910F9156
:1005F000FF90EF90DF9008950F931F93CF93DF93B9
:100600008C01EB0182E00E94B8021EBD0DB407FE12
:10061000FDCF8EB50EBD0DB407FEFDCF8EB51EBC51
:100620000DB407FEFDCF8EB520E030E0FE01E20FF5
:10063000F11D80818EBD0DB407FEFDCF8EB52F5FFD
:100640003F4F81E02030380789F7289A7894DF916E
:10065000CF911F910F91089580E090E060E070E0ED
:1006600040E050E020E030E00E94C40208951F9373
:10067000CF93DF93EC01FE0121961491112369F0D1
:100680001A3029F48CE594E06DE00E9465148CE545
:1006900094E0612F0E946514EECFDF91CF911F91FE
:1006A000089588E690E00E9437038091710290914E
:1006B0007202892B21F086E493E00E9437038CE5D7
:1006C00094E060E071E00E94F71581E00E94610F04
:1006D0000895EF92FF920F931F938C017B0181E0AD
:1006E0000E94E60DC8018A569F4F0E940B1180E0C0
:1006F0000E94E60DC701885C90400E940B111F917B
:100700000F91FF90EF9008950F931F93CF93DF9376
:10071000EC016830A1F49C01220F331F082E829552
:100720008025082E869586958025C82FD0E02196B5
:10073000D595C795C170D070C22BD32B69E0262FF9
:1007400030E02150304081E090E0A0E0B0E004C013
:10075000880F991FAA1FBB1F2A95D2F78C010FC0C3
:10076000C8018C239D23892B19F460E971E002C034
:1007700068E572E0CB010E946903169507950115A3
:10078000110571F7DF91CF911F910F9108950F938C
:100790001F938C018CE594E067E171E00E94F415F1
:1007A0008CE594E0B8014AE050E00E94511588EDD4
:1007B0000E94B8021EBD0DB407FEFDCF8EB50EBD62
:1007C0000DB407FEFDCF8EB51EBC0DB407FEFDCFE8
:1007D0008EB5289A78940E942C031F910F9108954A
:1007E00060917303662309F498C0209171023091DF
:1007F00072022F5F3F4F8FE12030380710F020E06A
:1008000032E0309372022093710282E02030380788
:1008100049F480916B0390916C03019690936C0363
:1008200080936B038FEF9FEF90937203809371031C
:10083000E3E7F2E090E04FEF5FEF7FEF961718F0FD
:10084000983F08F4708381914827842F82958427EC
:10085000082E869586958025082E8695802587709A
:10086000042E452F869507948795502D482706948A
:100870008795502548279F5F9E3F01F7509372034D
:1008800040937103C90163E772E00E94FC02109279
:1008900073030E942C038CE594E06DE171E00E94EB
:1008A000F41560917102709172028CE594E04AE057
:1008B00050E00E9440158CE594E060E20E946514CF
:1008C00060916B0370916C038CE594E04AE050E01A
:1008D0000E9440158CE594E060E20E94651440910E
:1008E0006D0350916E0360916F03709170038CE5FE
:1008F00094E02AE030E00E94AE1580917102909160
:100900007202882351F480509F4F2FE1803092076C
:1009100010F080E092E00E94C70308950E94A410A6
:1009200028EE33E040E050E00E945016CA01B901C1
:1009300008950F931F93CF93DF93EC018B016A30DF
:10094000710540F0CB016AE070E00E942916CE01EB
:100950000E949904DE010D900020E9F71197AC1B6D
:10096000CA0FD11DC8016AE070E00E942916805D9F
:100970008883DF91CF911F910F9108951F93CF939B
:10098000DF93C9ECD1E08CE1FE0111928A95E9F781
:10099000CE0163E271E00E9496021091C7011F71BF
:1009A000FE0101900020E9F7EA5CF140F0E0EC0F75
:1009B000FD1F105C10831054CE0165E271E00E94AF
:1009C0008B02CE01612F70E00E9499048091C701D3
:1009D00085FF0BC0FE0101900020E9F7EA5CF140C1
:1009E000F0E0EC0FFD1F8AE2808389EC91E068E281
:1009F00071E00E948B026091C80189EC91E070E087
:100A00000E94990489EC91E06BE271E00E948B02F4
:100A1000E091C701F0E066E0F595E7956A95E1F7AA
:100A2000EE0FFF1FE355FE4F6081718189EC91E06D
:100A30000E94990489EC91E06FE271E00E948B02C0
:100A40008FEF9FEF9093E6018093E501E7ECF1E0F3
:100A500021918091E5019091E6018227282F22952E
:100A60002827022E269526952025022E269520251C
:100A70002770082E892F269507942795902D822779
:100A800006942795902582279093E6018093E501AF
:100A900081E0E53EF807E1F680E290E0FC01E955EF
:100AA000FE4FE081F999FECF1FBA92BD81BDE0BD36
:100AB0000FB6F894FA9AF99A0FBE01968034910510
:100AC00069F781E00E94610F882331F48CE594E09E
:100AD00065E371E00E94F715DF91CF911F910895B2
:100AE0001F93182F89E061E00E94501160E01123EC
:100AF00009F461E089E00E9476111F9108952F9218
:100B00003F924F925F926F927F928F929F92AF929D
:100B1000BF92CF92DF92EF92FF920F931F93DF93DA
:100B2000CF93CDB7DEB764970FB6F894DEBF0FBE94
:100B3000CDBF8CE594E00E943413892B09F436C4B0
:100B40008CE594E00E946513182F80538A3058F486
:100B500080912C022AE0829FC00111248053810FD2
:100B600080932C0223C41C3289F490912D0292347C
:100B700050F4E92FF0E0E25DFD4F80912C0280837C
:100B80009F5F90932D0210922C0210C4812F8156EA
:100B90008A3108F0F9C38CE594E068E471E00E94C2
:100BA000F41560912C028CE594E070E04AE050E08E
:100BB0000E94C2158CE594E0612F0E948D141936B5
:100BC00089F11A36B4F4143609F449C1153644F4DF
:100BD000123679F113360CF04BC0113601F57DC099
:100BE000163609F493C016360CF487C31736B9F4D9
:100BF0003AC0123709F499C113374CF41C3609F482
:100C000080C0113709F4B0C31B3649F4C6C014378D
:100C1000E9F114370CF461C0173709F483C30E945B
:100C20005103A6C390912C029F718091C701807ED1
:100C300014C080912C02883011F492E005C08930F4
:100C400011F091E001C093E090932C029295990FDE
:100C5000990F907C8091C7018F73980F9093C70173
:100C60000E94BE0485C380912C028093C801F8CFF6
:100C700080912C02882321F08091C701806203C0FB
:100C80008091C7018F7D8093C701EACF81E6809371
:100C9000E70182E48093E8011092E901EAEEF1E0D5
:100CA00090E080917002890F81939F5F9234C9F721
:100CB0008CE594E06BE471E00E94F41560917002A1
:100CC0008CE594E070E04AE050E00E94D5158091F8
:100CD00070028F5F809370024BC31093E7014091C5
:100CE0002D024093E80180912C028093E9012AEEC5
:100CF00031E0EEE2F2E0C901BF0150E00E94820261
:100D000037C380912C020E94700532C380E062E0FC
:100D100044ED0E942E0E81E00E94700590912E02FB
:100D200080E020912F027C01E20EF11CB090300295
:100D3000C0902C02DF2C1B2D1C0D1A5F1E0D1F0DE9
:100D400000E081E090E06DE00E9484038D2D90E052
:100D500068E00E948403C70168E00E9484038B2D31
:100D600090E068E00E9484038C2D90E068E00E948F
:100D70008403812F90E068E00E94840380E090E08B
:100D800061E00E9484036AE070E080E090E00E94ED
:100D9000B2100F5F0330A9F65BC080E061E044ED64
:100DA0000E942E0E81E00E94700580912F02082F74
:100DB00010E00150104024E0000F111F2A95E1F7C8
:100DC000166080912E02992787FD909501978F706C
:100DD0009070082B192B80912C0281111860DD2452
:100DE0009CEDA92E95E0B92E30C087E791E065E62D
:100DF00074E00E946903C8010E2C02C09595879586
:100E00000A94E2F780FD03C087E791E002C085E61F
:100E100094E0B501681B790B0E9469030894E11CFA
:100E2000F11C2CE0E216F10401F787E791E067E797
:100E300071E00E9469036BE070E080E090E00E9446
:100E4000B210D39484E0D81619F0EE24FF24CDCF4D
:100E500080E00E94700581E00E94610F89C280914C
:100E6000710290917202892B09F482C28CE594E0A0
:100E70000E94651397FFFACF00E012E08DE0E82EA4
:100E8000F12CEC0EFD1E8CE594E00E94651397FF9B
:100E90006FC2C80168EF70E0A70128E030E00E944F
:100EA000C4028D859E858F5F9F4FB9F18CE594E0DC
:100EB00061E571E00E94F4158CE594E0B8014AE028
:100EC00050E00E9440158CE594E067E571E00E94D7
:100ED000F4156D857E858CE594E04AE050E00E9433
:100EE00040158CE594E060E20E9465144F855889B6
:100EF00069897A898CE594E02AE030E00E946E15D9
:100F00008CE594E060E20E9465146B897C898CE535
:100F100094E04AE050E00E9451150F5F1F4FBFE17F
:100F200000301B0709F0AFCF23C28091710290916E
:100F30007202892B09F41CC290912E0280E0892B49
:100F400019F480912F02811181E0282E3324909191
:100F5000300280E0892B11F031E005C08091310230
:100F6000811181E0382F9091320280E0892B11F0BD
:100F700021E005C080912C02811181E0282F832F70
:100F800090E0A0E0B0E0DC0199278827E22EFF2462
:100F900000E010E0E82AF92A0A2B1B2BC12CA2E062
:100FA000DA2EAA24AA94BA2C88249924F7E06F2E6A
:100FB000712C6C0E7D1E2E010894411C511CC60123
:100FC00068EF70E0A30126E030E00E94C4022F81A8
:100FD0003885EFEF2F3F3E07E9F02215330568F023
:100FE0002A153B0550F4D201F30186E001900D92E1
:100FF0008150E1F7A980BA8046012A153B0551F4DA
:1010000089859A85AB85BC85E816F9060A071B0712
:101010000CF046010894C11CD11CF0E0CF16FFE192
:10102000DF0669F68CE594E06BE571E00E94F4154B
:101030008CE594E0B4014AE050E00E9440158CE554
:1010400094E060E20E9465146091710270917202F6
:101050008CE594E04AE050E00E9451158CE594E064
:101060000E94651397FFFACFC0906B03D0906C037A
:1010700004C18CE594E00E94651397FF06C10894B3
:10108000811C911C20E082162FE1920618F0812C21
:10109000E2E09E2EC40160E070E043E752E020E011
:1010A00031E00E94C40280916B0390916C038F5FCA
:1010B0009F4F09F4E2C0E3E7F2E00FEF1FEF8191E9
:1010C0000827802F82958027082E86958695802573
:1010D000082E869580258770002E012F869507940F
:1010E0008795102D08270694879510250827B3E0CB
:1010F000E337FB0721F70115110511F410E083C058
:101100008CE594E064E671E00E94F4158CE594E0CF
:10111000B4014AE050E00E9440158CE594E060E2A2
:101120000E9465148CE594E0B8014AE050E00E940A
:101130005115A3C08CE594E00E943413892B09F06B
:101140006DC08CE594E06BE671E00E94F41560914F
:101150006B0370916C038CE594E04AE050E00E94D0
:1011600040158CE594E060E20E946514012F0F5F4A
:10117000F701808140916D0350916E0360916F0380
:1011800070917003480F511D611D711D8CE594E035
:101190002AE030E00E946E158CE594E060E20E9447
:1011A00065141E5FE02FF0E0ED58FD4F60818CE587
:1011B00094E070E04AE050E00E94C215E12FF0E0B8
:1011C000ED58FD4FE0801F5FF12E0E2D13C08CE512
:1011D00094E060E20E946514EF2DF0E0ED58FD4FC1
:1011E0006081F3948CE594E070E04AE050E00E9466
:1011F000C2150150002359F71E0D8CE594E00E94A2
:101200006D14183F58F4E12EFF2483E792E0E80EB6
:10121000F91ED7018C918F3F09F08CCF8CE594E0BB
:101220006EE671E00E94F4158CE594E0B4014AE0AA
:1012300050E00E9440158CE594E060E20E94651445
:1012400060916B0370916C038CE594E04AE050E090
:101250000E9440158CE594E060E20E946514409184
:101260006D0350916E0360916F03709170038CE574
:1012700094E02AE030E00E94AE15809171029091D6
:1012800072028816990609F0F4CE1092730308943E
:10129000C11CD11CD0926C03C0926B038CE594E00E
:1012A00067E171E00E94F415609171027091720221
:1012B0008CE594E04AE050E00E9440158CE594E013
:1012C00060E20E94651460916B0370916C038CE581
:1012D00094E04AE050E00E9440158CE594E060E222
:1012E0000E9465140E94A410AB01BC018CE594E03F
:1012F0002AE030E00E942C153BC080917102909151
:101300007202892BA9F180912E028B3789F5909179
:101310002F0280E020912C0230E0822B932B0E9440
:10132000C70326C08091710290917202892B01F14E
:1013300080912E028C30E1F480912C028232C1F433
:101340008CE594E064E771E00E94F71587EC0E9459
:10135000B802289A78940E942C038CE594E069E7FF
:1013600071E00E94F71504C080912C028093C601A1
:1013700010922D0210922C0282E4EEE2F2E0DF01E4
:101380001D928A95E9F712C0812F81548A3150F459
:101390001F718091C701807E810F8093C7010E94D9
:1013A000BE0404C0113214F00E9451030E94DA0CF2
:1013B000882309F4E9C0F090780380917403909138
:1013C0007503892B39F48CE594E060E871E00E94A4
:1013D000F41510C08091C601882309F00DC18CE579
:1013E00094E063E871E00E94F415B4E1BF1510F4D5
:1013F00074E1F72E8091C801882379F48CE594E09C
:1014000066E871E00E94F415609176038CE594E043
:1014100070E04AE050E00E94C2158CE594E060E282
:101420000E946514609177038CE594E070E04AE0D7
:1014300050E00E94C21500E010E012C08CE594E07C
:1014400060E20E946514F801E758FC4F60818CE56A
:1014500094E070E04AE050E00E94C2150F5F1F4F19
:101460000F1560F38CE594E00E946D148091740375
:1014700090917503892B09F087C081E00E94700567
:101480008091710290917202892B09F459C01091D8
:1014900078031E5F80917303882351F40E948E04A9
:1014A00060936D0370936E0380936F03909370034A
:1014B0000E948E04AB01BC0180916D0390916E037C
:1014C000A0916F03B0917003481B590B6A0B7B0B03
:1014D0004F3F5105610571054CF48091730390E015
:1014E0000196810F911D893F910580F00E94F003C4
:1014F0000E948E0460936D0370936E0380936F035C
:101500009093700340E050E060E070E0209173033E
:10151000E22FF0E0ED58FD4F40832F5F20937303DF
:1015200030E02D583D4F47E753E0C901BA01412F44
:1015300050E00E94820280917303810F80937303B5
:101540008091770385FF1DC08091770387FD19C0C7
:101550008091C70185FD15C08CE594E069E871E0D4
:101560000E94F7158091770386FF02C080E804C0CF
:10157000809177038F71806C60E070E040E00E94A2
:10158000FB0D80E00E9470058091E7018823A1F1A6
:101590000E94730D882381F181E00E9470058CE523
:1015A00094E061E971E00E94F4156091E8018CE536
:1015B00094E070E04AE050E00E94C2158CE594E0AF
:1015C00066E971E00E94F7158091E701813611F01C
:1015D00080E001C080E29091E901992311F09064CC
:1015E000892B6AEE71E04091E8010E94FB0D109298
:1015F000E70180E00E94700564960FB6F894DEBFA4
:101600000FBECDBFCF91DF911F910F91FF90EF9053
:10161000DF90CF90BF90AF909F908F907F906F9012
:101620005F904F903F902F900895CF92DF92EF926E
:10163000FF920F931F93DF93CF9300D0CDB7DEB708
:101640008CE594E040E051EE60E070E00E94AE1264
:101650008CE594E069E971E00E94F41581E00E9454
:10166000610F8823A9F0F999FECF80E290E092BD46
:1016700081BDF89A80B58093C701F999FECF81E2C8
:1016800090E092BD81BDF89A80B58093C80108C0F2
:1016900081E48093C70184ED8093C8010E94BE0459
:1016A000289A88E061E00E9450118FE90E949D0213
:1016B0001EBC0DB407FEFDCF3EB51EBC0DB407FE2B
:1016C000FDCF2EB5932F80E0289A789430E0822BBE
:1016D000932B8052904209F063C081E00E94B802CF
:1016E0001EBC0DB407FEFDCF8EB5289A78941092DB
:1016F0006C0310926B038FEF9EE1909372028093C4
:10170000710200E012E03FEFE32E3EE1F32E6E01A6
:101710000894C11CD11CC80168EF70E0A60122E04A
:1017200030E00E94C40289819A812FEF8F3F920797
:1017300039F0019690936C0380936B03780105C098
:10174000C8010197E816F90631F00F5F1F4F8FE1CE
:101750000030180701F7F0927202E09271028CE5F6
:1017600094E067EA71E00E94F41560917102709153
:1017700072028CE594E04AE050E00E9440158CE54E
:1017800094E060E20E94651460916B0370916C03B9
:101790008CE594E04AE050E00E9451150E94F0036D
:1017A0000E9451030F900F90CF91DF911F910F91E5
:1017B000FF90EF90DF90CF9008952A981EBC0DB453
:1017C00007FEFDCF8EB51EBC0DB407FEFDCF8EB556
:1017D0002A9A8091C403853009F06EC08CB581606F
:1017E0008CBD2A9880EB8EBD0DB407FEFDCF2EB5C3
:1017F0001EBC0DB407FEFDCF3EB580E02A9A2CB585
:101800002E7F2CBD382B8091C603882371F49091D4
:10181000C503992351F08091C603E82FF0E0EA5800
:10182000FC4F90838F5F8093C6038091C603E82F9F
:10183000F0E0EA58FC4F30838F5F8093C6038091BD
:101840007403909175038327282F22952827022E51
:10185000269526952025022E269520252770082ED0
:10186000892F269507942795902D822706942795F2
:101870009025822790937503809374038091780359
:101880002091C60390E0049630E0821793072CF075
:101890008091C603873408F48CC02A9882E88EBDF4
:1018A0000DB407FEFDCF8EB58DE08EBD0DB407FEE5
:1018B000FDCF8EB52A9A08958091C40387FF2EC06C
:1018C000E09178038091C4038F5F8093C4038150BB
:1018D000ED5FE80FF0E0EA58FC4FE081809174037F
:1018E000909175038E27282F22952827022E269562
:1018F00026952025022E269520252770082E892F33
:10190000269507942795902D822706942795902554
:10191000822790937503809374033AC08091C40327
:101920008F5F8093C4038150833019F184302CF48D
:10193000882399F0813059F516C0893019F08A3022
:1019400031F502C0EDE224C0E09176039091780376
:101950008EEF891B8093C4031BC080917403909108
:101960007503E82F15C08091740390917503E92FDA
:101970000FC02A9882E88EBD0DB407FEFDCF8EB54C
:101980008DE08EBD0DB407FEFDCF8EB52A9AEAEA32
:101990002A9888EB8EBD0DB407FEFDCF8EB58E2F35
:1019A00090E0805098448EBD0DB407FEFDCF8EB5FB
:1019B0002A9A08958091C403853009F042C080912D
:1019C00078032091C60390E0049630E082179307D5
:1019D00024F08091C6038734A0F184E08093C4038F
:1019E00080917803833430F081E090E09093750328
:1019F000809374038091770386FF12C08091C303A4
:101A0000282F30E0C9018F7190704F9749F0809175
:101A1000770390E0822793278F719070892B89F448
:101A20008091740390917503892B09F04EC0E09169
:101A3000C103F091C203309709F447C080E00995D3
:101A400050C08091C403843011F080E0089510925A
:101A50007803809178038093C6038FEF9FEF909374
:101A60007503809374032091C5032223D9F0822744
:101A7000282F22952827022E269526952025022EEE
:101A8000269520252770082E892F269507942795BF
:101A9000902D822706942795902582279093750391
:101AA0008093740385E08093C4032A9882E88EBDF6
:101AB0000DB407FEFDCF8EB58DED8EBD0DB407FEC6
:101AC000FDCF8EB52A9A80E008958FEF9FEFAFEF9C
:101AD000BFEF8093BD039093BE03A093BF03B09369
:101AE000C00381E008958091C403853011F5809191
:101AF000C6038823F1F41EBC0DB407FEFDCF0EB45F
:101B000000FC17C02A9882E88EBD0DB407FEFDCFF9
:101B10008EB58DE08EBD0DB407FEFDCF8EB52A9A31
:101B200084E08093C4038091C5038093760381E0B1
:101B3000089580E00895982F86FD05C0907E8091DD
:101B4000C3038F71980F90937703E091C103F091D5
:101B5000C203309711F081E009958FEF9FEF9093CA
:101B600075038093740380917403909175032091A1
:101B700076038227282F22952827022E2695269540
:101B80002025022E269520252770082E892F2695A0
:101B900007942795902D82270694279590258227D4
:101BA000909375038093740386E08093C4032A980E
:101BB00082E88EBD0DB407FEFDCF8EB58DE38EBDE0
:101BC0000DB407FEFDCF8EB52A9A0895882319F427
:101BD0002DE032E802C02DE332E82A9882E88EBD7B
:101BE0000DB407FEFDCF8EB52EBD0DB407FEFDCFA3
:101BF0008EB52A9A08951F93182F4093780329E7EA
:101C000033E0C90150E00E948202812F0E949B0DA7
:101C10001F9108952A9A229A8AE061E00E94761123
:101C20008AE061E00E9450118BE061E00E94501157
:101C30008CE060E00E9450118DE061E00E94501144
:101C400080E58CBD8DB581608DBD82E060E00E9435
:101C5000501182E061E00E94761108951F93162FC3
:101C60008093C3034093C5030E940A0E2A981EBCAA
:101C70000DB407FEFDCF8EB51EBC0DB407FEFDCF23
:101C80008EB52A9A2A9882E88EBD0DB407FEFDCF44
:101C90008EB585E08EBD0DB407FEFDCF8EB52A9AB8
:101CA0002A9888EB8EBD0DB407FEFDCF8EB51EBC05
:101CB0000DB407FEFDCF0AC02A981EBC0DB407FE66
:101CC000FDCF8EB51EBC0DB407FEFDCF8EB52A9A92
:101CD00082E00E94CA11892B79F3612F70E0E4E061
:101CE000660F771FEA95E1F7676C70682A987EBDEA
:101CF0000DB407FEFDCF8EB56EBD0DB407FEFDCF52
:101D00008EB52A9A2A9886EA8EBD0DB407FEFDCFBD
:101D10008EB580E48EBD0DB407FEFDCF8EB52A9A38
:101D20002A9886EC8EBD0DB407FEFDCF8EB586E0F9
:101D30008EBD0DB407FEFDCF8EB52A9A2A9884E990
:101D40008EBD0DB407FEFDCF8EB582EA8EBD0DB4FB
:101D500007FEFDCF8EB52A9A2A9882EC8EBD0DB46F
:101D600007FEFDCF8EB58CEA8EBD0DB407FEFDCF0C
:101D70008EB52A9A9091C5039923E1F02A988AECAE
:101D80008EBD0DB407FEFDCF8EB583E88EBD0DB4BC
:101D900007FEFDCF8EB52A9A892F90E09E6C2A9877
:101DA0009EBD0DB407FEFDCF2EB58EBD0DB407FE52
:101DB000FDCF1AC02A988AEC8EBD0DB407FEFDCF68
:101DC0008EB58BE88EBD0DB407FEFDCF8EB52A9A79
:101DD0002A988EEC8EBD0DB407FEFDCF8EB58DE238
:101DE0008EBD0DB407FEFDCF8EB52A9A2A9884ECDD
:101DF0008EBD0DB407FEFDCF8EB583E88EBD0DB44C
:101E000007FEFDCF8EB52A9A2A9888E98EBD0DB4BB
:101E100007FEFDCF8EB580E58EBD0DB407FEFDCF6C
:101E20008EB52A9A2A988CEC8EBD0DB407FEFDCF94
:101E30008EB587E78EBD0DB407FEFDCF8EB52A9A0D
:101E40002A9880EE8EBD0DB407FEFDCF8EB51EBC68
:101E50000DB407FEFDCF8EB52A9A2A9888EC8EBD68
:101E60000DB407FEFDCF8EB51EBC0DB407FEFDCF31
:101E70008EB52A9A2A9880EC8EBD0DB407FEFDCF50
:101E80008EB589E48EBD0DB407FEFDCF8EB52A9ABE
:101E900084E08093C4038091C30390E08F719070BD
:101EA000892B41F080E06DED7BE040E050E00E9446
:101EB000CC0F03C080E00E94EF0F8091C3031F91FD
:101EC0000895EF92FF920F931F93CF93DF93E82E25
:101ED0004FEF5FEF20E230E0F999FECF32BD21BD38
:101EE000F89A80B54827842F82958427082E8695F6
:101EF00086958025082E869580258770042E452F8F
:101F0000869507948795502D4827069487955025E8
:101F100048272F5F3F4F2034310509F0DDCF452B97
:101F200011F080E032C000E0FF2410E0C0E2D0E019
:101F3000F999FECFD2BDC1BDF89A60B5112311F455
:101F4000062F0CC0113011F4F62E08C0662351F094
:101F5000EE2021F08CE594E00E9465141F5F21962D
:101F60001E3131F7EE2021F08CE594E00E946D14D3
:101F7000602F70E0F6E075956795FA95E1F7802F90
:101F80004F2D0E942E0E802F8F71DF91CF911F91C8
:101F90000F91FF90EF900895823000F5E82FF0E068
:101FA000EE0FFF1FE953FC4F71836083882319F004
:101FB0008130A1F408C0809169008C7F842B8093CC
:101FC0006900E89A089580916900440F551F440FF5
:101FD000551F837F842B80936900E99A089582308E
:101FE00080F4882319F0813021F402C0E89801C000
:101FF000E998E82FF0E0EE0FFF1FE953FC4F118244
:10200000108208951F920F920FB60F9211242F93F2
:102010003F934F935F936F937F938F939F93AF9370
:10202000BF93EF93FF938091C7039091C803892BCF
:1020300029F0E091C703F091C8030995FF91EF9152
:10204000BF91AF919F918F917F916F915F914F91D0
:102050003F912F910F900FBE0F901F9018951F92D8
:102060000F920FB60F9211242F933F934F935F93CC
:102070006F937F938F939F93AF93BF93EF93FF9350
:102080008091C9039091CA03892B29F0E091C9037B
:10209000F091CA030995FF91EF91BF91AF919F9184
:1020A0008F917F916F915F914F913F912F910F9001
:1020B0000FBE0F901F9018951F920F920FB60F92A0
:1020C00011242F933F938F939F93AF93BF9380914E
:1020D000CF039091D003A091D103B091D20330915E
:1020E000D3030196A11DB11D232F2D5F2D3720F0A5
:1020F0002D570196A11DB11D2093D3038093CF03CB
:102100009093D003A093D103B093D2038091CB03DB
:102110009091CC03A091CD03B091CE030196A11D67
:10212000B11D8093CB039093CC03A093CD03B093C8
:10213000CE03BF91AF919F918F913F912F910F90BF
:102140000FBE0F901F9018958FB7F8942091CF0372
:102150003091D0034091D1035091D2038FBFB90188
:10216000CA0108959B01AC017FB7F8948091CB031D
:102170009091CC03A091CD03B091CE0366B5A89BFE
:1021800005C06F3F19F00196A11DB11D7FBFBA2F89
:10219000A92F982F8827860F911DA11DB11D62E0E0
:1021A000880F991FAA1FBB1F6A95D1F7BC012DC0CC
:1021B000FFB7F8948091CB039091CC03A091CD030D
:1021C000B091CE03E6B5A89B05C0EF3F19F001968C
:1021D000A11DB11DFFBFBA2FA92F982F88278E0FE1
:1021E000911DA11DB11DE2E0880F991FAA1FBB1F01
:1021F000EA95D1F7861B970B885E9340C8F2215071
:1022000030404040504068517C4F21153105410518
:10221000510571F60895019739F0880F991F880FBD
:10222000991F02970197F1F70895789484B5826019
:1022300084BD84B5816084BD85B5826085BD85B56A
:10224000816085BDEEE6F0E0808181608083E1E819
:10225000F0E0108280818260808380818160808351
:10226000E0E8F0E0808181608083E1EBF0E0808154
:1022700084608083E0EBF0E0808181608083EAE726
:10228000F0E08081846080838081826080838081AF
:10229000816080838081806880831092C10008956E
:1022A000482F50E0CA018B579B4FFC0124914F5897
:1022B0005B4FFA0184918823C1F0E82FF0E0EE0F24
:1022C000FF1FED5AFB4FA591B491662341F49FB7D0
:1022D000F8948C91209582238C939FBF08959FB78B
:1022E000F8948C91822B8C939FBF0895482F50E0D7
:1022F000CA0187569B4FFC012491CA018B579B4F03
:10230000FC0194914F585B4FFA013491332309F447
:1023100040C0222351F1233071F0243028F42130C1
:10232000A1F0223011F514C02630B1F02730C1F0F1
:102330002430D9F404C0809180008F7703C080914D
:1023400080008F7D8093800010C084B58F7702C09D
:1023500084B58F7D84BD09C08091B0008F7703C0A4
:102360008091B0008F7D8093B000E32FF0E0EE0FFE
:10237000FF1FE35AFB4FA591B4912FB7F894662342
:1023800021F48C919095892302C08C91892B8C9398
:102390002FBF0895682F70E0CB0187569B4FFC013B
:1023A0002491CB018B579B4FFC0144916F587B4F7D
:1023B000FB019491992319F420E030E03CC02223E2
:1023C00051F1233071F0243028F42130A1F0223073
:1023D00011F514C02630B1F02730C1F02430D9F403
:1023E00004C0809180008F7703C0809180008F7D32
:1023F0008093800010C084B58F7702C084B58F7D34
:1024000084BD09C08091B0008F7703C08091B00077
:102410008F7D8093B000892F90E0880F991F895994
:102420009B4FFC01A591B4918C9120E030E0842376
:1024300011F021E030E0C901089508951F920F9234
:102440000FB60F9211242F933F934F938F939F9327
:10245000EF93FF934091C60020911404309115042E
:102460002F5F3F4F2F7330708091160490911704A7
:102470002817390759F0E0911404F0911504EC5233
:10248000FC4F40833093150420931404FF91EF9187
:102490009F918F914F913F912F910F900FBE0F9071
:1024A0001F901895E0916804F0916904E05CFF4F7B
:1024B0008191919120813181821B930B8F73907058
:1024C000892B11F00E941D1208951F920F920FB6D2
:1024D0000F9211242F933F934F935F936F937F93AA
:1024E0008F939F93AF93BF93EF93FF9320915804E3
:1024F0003091590480915A0490915B042817390750
:1025000031F48091C1008F7D8093C10016C0E091AD
:102510005A04F0915B04E85EFB4F408180915A04BD
:1025200090915B04019660E470E00E943D169093E8
:102530005B0480935A044093C600FF91EF91BF91D2
:10254000AF919F918F917F916F915F914F913F914B
:102550002F910F900FBE0F901F901895AF92BF92C2
:10256000DF92EF92FF920F931F93CF93DF93EC01D3
:102570007A018B01DD24403081EE580780E0680746
:1025800080E0780711F0DD24D39491E0A92EB12CDE
:10259000EC89FD89DD2069F0C5010E8C02C0880F31
:1025A000991F0A94E2F7808360E079E08DE390E080
:1025B00005C0108260E874E88EE190E0A801970100
:1025C0000E9450162150304040405040569547954B
:1025D0003795279580E12030380720F0DD2011F075
:1025E000DD24D6CFE889F9893083EA89FB89208305
:1025F000EE89FF89408121E030E0C9010A8C02C0E8
:10260000880F991F0A94E2F7482B4083EE89FF89CF
:102610004081C9010B8C02C0880F991F0A94E2F710
:10262000482B4083EE89FF894081C9010C8C02C090
:10263000880F991F0A94E2F7482B4083EE89FF899F
:1026400080810D8C02C0220F331F0A94E2F720957F
:1026500028232083DF91CF911F910F91FF90EF905E
:10266000DF90BF90AF900895DC011C96ED91FC9136
:102670001D97E05CFF4F2191319180819181281B52
:10268000390B2F733070C9010895DC011C96ED9150
:10269000FC911D97E05CFF4F20813181E054F040B8
:1026A000DF01AE5BBF4F8D919C91119728173907C1
:1026B00019F42FEF3FEF07C08D919C91E80FF91FA0
:1026C0008081282F30E0C9010895DC011C96ED912E
:1026D000FC911D97E05CFF4F20813181E054F04078
:1026E000DF01AE5BBF4F8D919C9111972817390781
:1026F00019F42FEF3FEF10C08D919C911197E80FC7
:10270000F91F20818D919C91119701968F73907084
:1027100011969C938E9330E0C9010895FC01868543
:102720009785DC01A05CBF4FFC01EE5BFF4F2D9154
:102730003C9111978081918128173907C1F708953D
:10274000CF93DF93EC01462FEE85FF85E05CFF4FD2
:1027500080819181E054F040019660E470E00E9435
:102760003D169C01DF01AE5BBF4F8D919C9111978F
:1027700028173907D1F3E05CFF4F80819181E05445
:10278000F040E80FF91F4083EE85FF85E05CFF4FC6
:1027900031832083EE89FF89208181E090E00D8CD8
:1027A00002C0880F991F0A94E2F7282B208381E04A
:1027B00090E0DF91CF91089510925F0410925E0433
:1027C00088EE93E0A0E0B0E0809360049093610411
:1027D000A0936204B093630489EB91E090935D044D
:1027E00080935C0484ED93E0909369048093680483
:1027F00088E194E090936B0480936A0485EC90E008
:1028000090936D0480936C0484EC90E090936F043B
:1028100080936E0480EC90E0909371048093700438
:1028200081EC90E0909373048093720486EC90E0C6
:10283000909375048093740484E08093760483E01D
:102840008093770487E08093780485E0809379040F
:1028500081E080937A040895CF93DF930E9415114D
:102860000E94150BC2E5D2E10E947F052097E1F39B
:102870000E945212F9CFCF92DF92EF92FF920F9304
:102880001F93CF93DF937C016B018A01C0E0D0E0FE
:102890000FC0D6016D916D01D701ED91FC910190B2
:1028A000F081E02DC7010995C80FD91F01501040D4
:1028B0000115110571F7CE01DF91CF911F910F9195
:1028C000FF90EF90DF90CF900895DC01ED91FC91A7
:1028D0000190F081E02D09950895EF92FF920F93FA
:1028E0001F938C01DC01ED91FC910190F081E02DB2
:1028F0006DE009957C01D801ED91FC910190F0818A
:10290000E02DC8016AE009959C012E0D3F1DC9010B
:102910001F910F91FF90EF900895EF92FF920F9308
:102920001F937C01DC01ED91FC910190F081E02D81
:1029300009958C01C7010E946D14080F191FC80169
:102940001F910F91FF90EF900895CF93DF93DB01DC
:102950000D900020E9F71197A61BB70BEC01E88159
:10296000F9810280F381E02DAD010995DF91CF91CE
:1029700008954F925F927F928F929F92AF92BF92F3
:10298000CF92DF92EF92FF920F931F93DF93CF933B
:10299000CDB7DEB7A1970FB6F894DEBF0FBECDBF9F
:1029A0002C01742ECB01223008F42AE019A231E266
:1029B000C32ED12CCC0EDD1E822E9924AA24BB243A
:1029C000672D752FA50194010E94501679018A0187
:1029D000C801B701A50194010E940A16472D461BA4
:1029E0000894C108D1084A3014F4405D01C0495C24
:1029F000F6014083E114F1040105110521F07E2C5C
:102A00005F2DC801DDCFC201B6010E94A514A196B9
:102A10000FB6F894DEBF0FBECDBFCF91DF911F91EF
:102A20000F91FF90EF90DF90CF90BF90AF909F906D
:102A30008F907F905F904F900895DC0121153105B4
:102A400041F4ED91FC910190F081E02D642F099506
:102A500008950E94B9140895EF92FF920F931F9367
:102A60007C010E941D158C01C7010E946D149C0100
:102A7000200F311FC9011F910F91FF90EF90089512
:102A8000EF92FF920F931F939A017B0100E010E0F9
:102A9000B801A7010E941D151F910F91FF90EF90A3
:102AA0000895CF92DF92EF92FF920F931F936C01E4
:102AB0007B019A0100E010E0B801A7010E941D15FA
:102AC0008C01C6010E946D14080F191FC8011F91C7
:102AD0000F91FF90EF90DF90CF900895CF92DF920B
:102AE000EF92FF920F931F93CF93DF93EC016A0154
:102AF0007B012115310541F4E881F9810190F081D4
:102B0000E02D642F09951FC02A303105D1F477FFDD
:102B100017C0E881F9810190F081E02D6DE20995FF
:102B20008C0144275527BA014C195D096E097F09AC
:102B3000CE012AE00E94B9149801280F391F04C061
:102B40002AE00E94B9149C01C901DF91CF911F9125
:102B50000F91FF90EF90DF90CF900895EF92FF924A
:102B60000F931F937C010E946E158C01C7010E9478
:102B70006D149C01200F311FC9011F910F91FF900F
:102B8000EF900895EF92FF920F931F937B019A01AC
:102B90000027F7FC0095102FB801A7010E946E15C1
:102BA0001F910F91FF90EF900895CF92DF92EF92D7
:102BB000FF920F931F936C017B019A010027F7FC92
:102BC0000095102FB801A7010E946E158C01C60157
:102BD0000E946D14080F191FC8011F910F91FF90DB
:102BE000EF90DF90CF9008950E94A5140895EF9282
:102BF000FF920F931F937C010E94A5148C01C701C3
:102C00000E946D14080F191FC8011F910F91FF90AA
:102C1000EF900895629FD001739FF001829FE00DB5
:102C2000F11D649FE00DF11D929FF00D839FF00D4B
:102C3000749FF00D659FF00D9927729FB00DE11DF7
:102C4000F91F639FB00DE11DF91FBD01CF011124D4
:102C50000895AA1BBB1B51E107C0AA1FBB1FA617E3
:102C6000B70710F0A61BB70B881F991F5A95A9F735
:102C700080959095BC01CD01089597FB092E0726FC
:102C80000AD077FD04D0E5DF06D000201AF4709555
:102C900061957F4F0895F6F7909581959F4F089520
:102CA000A1E21A2EAA1BBB1BFD010DC0AA1FBB1F50
:102CB000EE1FFF1FA217B307E407F50720F0A21BC2
:102CC000B30BE40BF50B661F771F881F991F1A942F
:102CD00069F760957095809590959B01AC01BD0159
:102CE000CF010895EE0FFF1F0590F491E02D099498
:042CF000F894FFCF86
:102CF40043757272656E7420636F6E666967757270
:102D04006174696F6E3A00444620452000444620B1
:102D1400532000200020690020670020402000206C
:102D24004D487A2000636F6E66696720736176652B
:102D3400206661696C6564003E20007465737420CC
:102D440000206466232000203A2000723A2070613B
:102D540067652000444620433F200052200044463B
:102D64002052200044462057006572617365640058
:102D74004F4B00203F00472000202D3E2061636B15
:102D840000202D3E20002062000A5B52463132644E
:102D9400656D6F2E385D004446204920003B01B12B
:102DA400016403930300000000A0133B1434136573
:062DB4001345138E13000D
:00000001FF
